:400000000080002011000000B5050000B505000080B500AF024A034B1B68136000F0FCFABC760040FA46004010B5054C237833B9044B13B10448AFF300800123237010BDAD
:400040004881FF1F000000007C250000084B10B51BB108490848AFF300800848036803B910BD074B002BFBD0BDE81040184700BF000000004C81FF1F7C250000C880FF1FC0
:400080000000000080B590B002AF00F0B1FC01F049F801F0CBFB01F063FB01F043FC01F0D1FB62B61A4B00221A7000F0B9FC194801F0B4F8164B1B78DBB2002BFAD072B6EE
:4000C000154B1B68154AA2FB0323DB08FB86124B1968124BA3FB0123DA0813469B0013445B00CA1A1346BB860B4B1A68F98EBB8E384600930B460A4901F01CFE62B63B4693
:40010000184601F08BF8024B00221A70D2E700BF7481FF1F882500007081FF1FCDCCCCCC9825000080B582B000AF786039603A680021786801F0F5FD00BF0837BD4680BD74
:4001400080B584B000AFF860B9607A607A68B968F86801F0DBFD00BF1037BD4680BD00BF80B483B000AF0346FB71FEE780B487B000AF7860396000233B6100237B6127E0EB
:400180007B699B007A6813441B68BB60BB68FB73BB6823F0FF03BB6014E03B695B003A6813441B781A46BB68134419463B695B003A6813445B780B703B6901333B61FB7B1D
:4001C000013BFB73FB7B002BE7D17B6901337B617B69162BD4D900BF1C37BD4680BC704780B582B000AF434B40F2E7321A80424B1B221A70414B00221A80414B50221A7081
:40020000404B19221A80404B18221A7004223F493F48FFF795FF3F4B02221A704FF0402308221A703C4B03221A703C4B3C4A1278D2B21A703B4B08221A803B4B41F2512271
:400240001A800023FB7019237B6014E0FB785B00DAB2364B1B78DBB203F00103DBB21343DBB203F00303FB704FF4F07001F068FB7B68013B7B607B68002B02D0FB78032B13
:40028000E4D17B68002B02D10320FFF769FF284B4FF480721A80264B07221A70254B00221A70254B48221A70214B00221A70234B02221A70224B04221A70224A214B1B7885
:4002C000DBB243F00703DBB213701F4A1E4B1B78DBB243F00103DBB213701C4A1B4B1B78DBB263F07F03DBB2137000BF0837BD4680BD00BF80400040824000408440004017
:4003000086400040884000408A4000406C030048004100400043004000420040A14600400801004922420040204200402542004004400040064000400840004001400040EF
:400340000B400040A2430040A1430040A043004080B483B000AF0E4B1B78FB710D4AFB7903F00703DBB213700B4AFB791B09DBB213700A4B01221A70094B10221A70094BDD
:4003800044221A7000BF0C37BD4680BC704700BFCF0100496E5800406F5800400D510040005B00407658004080B483B000AF0346FB71FB79012B0ED8FB79094A52F8233074
:4003C000FA79074951F822201178FA790548825C0A43D2B21A7000BF0C37BD4680BC7047D4250000DC25000080B483B000AF0346FB71FB79012B10D8FB790A4A52F8233083
:40040000FA79084951F822201178FA790648825CD243D2B20A40D2B21A7000BF0C37BD4680BC7047D4250000DC25000080B586B000AF72B64C4A4C4B1B78DBB243F0040399
:40044000DBB213700023FB7513E0FA7D13465B0013445B00454A13443B613B691A683B699B889BB219461046FFF75CFEFB7D0133FB75FB7D072BE8D90023FB751CE0FA7DBB
:4004800013469B0013445B00394A1344FB60FB681B68BB60FB685B687B60FB681A7A5B7A1B0213437B807B881A467968B868FFF747FEFB7D0133FB75FB7D002BDFD02D49A2
:4004C0004FF09040FFF752FE2B4B0A221A702B4A2A4B1B78DBB243F00203DBB21370284A274B1B78DBB243F00203DBB21370254A244B1B78DBB243F04003DBB21370224AED
:40050000214B1B78DBB243F01003DBB2137008221E491F48FFF714FE0A221E491E48FFF70FFE08221D491E48FFF70AFE1D4A1D4B1B78DBB243F00803DBB213701A4B6022C5
:400540001A70FFF74DFE184B80221A70174B01221A70FFF7FDFE0E220A491548FFF7F0FD00BF1837BD4680BDE8460040E0250000102600005C000048835800400350014014
:4005800013500140A0430040C2430040500300480251004058030048C05100406403004812510040224300400048004004000840B043004080B500AF01F07CFB03461B68F7
:4005C0000C2B00D1FEE7FEE780B584B000AF78600F4B1A687B6813441A460E4BD31A802B09DC0B4B1B68FB60094B1A687B681344074A136007E001F05DFB02460C231360CB
:400600004FF0FF33FB60FB6818461037BD4680BDCC80FF1FA881FF1F80B586B000AF224B7B61224B3B61204B7B6135E03B691B68FB603B695B68BB603B699B683B600023C4
:400640007B600CE0FB681A68BB681A60BB680433BB60FB680433FB607B6804337B607A683B689A42EED13B69DB683B6000237B6008E0BB6800221A60BB680433BB607B6833
:4006800004337B607A683B689A42F2D13B6910333B617B69013B7B617B69002BC6D101F00FFBFFF7EFFCFEE7010000007426000080B582B000AF184B184A1A60184A184B69
:4006C0001B6843F40073136000237B600FE07B68032B04D8134A7B6852F8233000E0124B12497A6841F822307B6801337B607B682F2BECD90E4B1B78DAB20E4B1A700E4BF6
:400700000A4A1A60FFF792FE0C4B00221A6000BF0837BD4680BD00BF0CED00E00004FA0514ED00E000000000B50500000080FF1FBC760040C480FF1F08ED00E0C080FF1F59
:4007400080B582B002AF414B01221A70404B00221A70102000F070FE102000F053FF07211D2000F0D9FF3B4B04221A703A4B00221A703A4B00221A70394A394B1B78DBB205
:4007800043F01803DBB21370364B00221A70364B00221A70354B00221A70354B0A221A70344B00221A70344B00221A70334B5B221A70334B5E221A70324B00221A70324B16
:4007C00014221A700123009310234FF4004247F60271032000F098FB0223009310234FF4004249F2DA01002000F08EFB0323009310234FF4004249F2DA01002000F084FB3F
:400800000423009310234FF4004249F2DA01002000F07AFB1D4A0D4B1B78DBB2013B1C499B000B449B7813701A4A084B1B78DBB2013B174931F823301380044B1B78DBB2BA
:40084000184600F059F900BFBD4680BDD080FF1F7881FF1F96580040975800409E580040075B004093580040885B0040895B00408058004081580040835800408858004041
:40088000895800408D580040014E00400E4E00408081FF1F0C4E004080B582B000AF01F06EF80346FB71444B1B78BB71434A434B1B78DBB243F00103DBB213703F4A3F4B09
:4008C0001B78DBB243F01003DBB213703C4A3C4B1B78DBB243F00103DBB21370384A384B1B78DBB243F01003DBB21370354A354B1B78DBB243F00203DBB21370324A324B33
:400900001B78DBB243F00203DBB213702F4A2F4B1B78DBB243F00303DBB21370032000F0BFFE284A274B1B78DBB223F00203DBB21370254A244B1B78DBB223F00203DBB254
:400940001370234A224B1B78DBB243F00603DBB21370204B7A221A701F4A1F4B1B78DBB243F00103DBB213701C4A1C4B1B78DBB243F00103DBB21370194A194B1B78DBB2C8
:4009800043F00203DBB21370164A164B1B78DBB243F00203DBB21370134B4FF000521A60124B4FF000521A60FB79184600F0EBFF00BF0837BD4680BDD080FF1FAA43004070
:4009C000BA430040F8460040F9460040915800407758004082580040A1430040B1430040A2430040B243004080E200E000E100E080B500AF084B1B78002B09D1074B1B7802
:400A0000DBB2002B01D1FFF79BFE034B01221A70FFF742FF00BF80BD7A81FF1F7B81FF1F80B400AF054A054B1B78DBB243F00103DBB2137000BFBD4680BC7047004E004010
:400A400080B483B000AF174B1B78DBB203F003037B717B79012B03D8134B1B88FB8011E0114B1B78DBB2FB80104B1B78DBB29BB21B029AB2FB881343FB807B79032B01D121
:400A80000B4B1B780B4B1B78DBB2002B02D00A4B00221A70B7F9063018460C37BD4680BC704700BF144E0040104E0040114E0040124E00407981FF1F7881FF1F80B485B086
:400AC00000AF78600A4B1B687A68D31A7B607B684FF47A7202FB03F2064B1B6892FBF3F3FB81B7F90E3018461437BD4680BC70477C81FF1F9C81FF1F80B582B000AF0346E4
:400B0000FB71C34B00221A70FB79012B66D1C14B38221A70C04B04221A70C04B06221A70BF4B00221A70BF4B00221A70BE4B3F221A70BE4B00221A70BD4B00221A70BD4B7F
:400B400000221A70BC4B01221A70BC4B50221A70BB4B07221A70BB4B29221A70BA4B00221A70BA4B55221A70B94B5A221A70B94B00221A70B84B01221A70B84B11221A709D
:400B8000B74B19221A70B74B97221A70442000F073FAB54B58221A70B44B00221A70B44B05221A70B34B02221A70B34B00221A70B24B00221A70002000F06CFBB04B42F660
:400BC000AB121A600121052000F078FB0121252000F05AFCAB491D2000F076FDFB79022B66D18C4B38221A708B4B04221A708B4B06221A708A4B00221A708A4B00221A7030
:400C0000894B3F221A70894B00221A70884B00221A70884B00221A70874B01221A70874B50221A70864B27221A70864B2C221A70854B00221A70854B55221A70844B5A2245
:400C40001A70844B05221A70834B01221A70834B11221A70824B19221A70824B97221A70442000F009FA804B58221A707F4B00221A707F4B05221A707E4B02221A707E4B6B
:400C800000221A707D4B00221A70002000F002FB7B4B4FF47A421A600121052000F00EFB0121252000F0F0FB77491D2000F00CFDFB79032B66D1574B38221A70564B04222A
:400CC0001A70564B06221A70554B00221A70554B00221A70544B3F221A70544B00221A70534B00221A70534B00221A70524B01221A70524B50221A70514B27221A70514B28
:400D00002C221A70504B00221A70504B55221A704F4B5A221A704F4B05221A704E4B01221A704E4B11221A704D4B19221A704D4B97221A70442000F09FF94B4B58221A70B3
:400D40004A4B00221A704A4B05221A70494B02221A70494B00221A70484B00221A70002000F098FA464B4FF47A421A600121052000F0A4FA0121252000F086FB43491D2009
:400D800000F0A2FCFB79042B40F0A980214B38221A70214B04221A70204B06221A70204B00221A701F4B00221A701F4B3F221A701E4B00221A701E4B00221A701D4B0022EA
:400DC0001A701D4B01221A701C4B50221A701C4B27221A701B4B2C221A701B4B00221A701A4B55221A701A4B5A221A70194B05221A70194B01221A70184B11221A70184BED
:400E000019221A70174B97221A70442040E000BF7981FF1F004E0040024E0040034E0040044E0040054E0040064E0040084E0040094E00400A4E0040144E00408458004002
:400E40008558004086580040875800408A5800408B5800408C5800408E5800408F580040905800409158004094580040955800409A5800409B5800409C5800409D580040EA
:400E80009C81FF1FF5100000011100000D11000000F0F2F8144B58221A70144B00221A70134B05221A70134B02221A70124B00221A70124B00221A70002000F0EBF9104BFE
:400EC0004FF47A421A600121052000F0F7F90121252000F0D9FA0B491D2000F0F5FB00BF0837BD4680BD00BF94580040955800409A5800409B5800409C5800409D58004093
:400F00009C81FF1F1911000090B587B000AF0446084611461A462346FB710346BB800B467B801346BB7197F82830002B00F08B8097F82830042B00F28680FB79013B092BA9
:400F40004AD801A252F823F0710F0000D90F0000D90F0000710F0000D90F0000D90F00008B0F0000A50F0000D90F0000BF0F0000BB790F2B04D9374B1B78DBB2FB752EE040
:400F8000354B1B78DBB2FB7529E0BB790F2B04D9324B1B78DBB2FB7521E0314B1B78DBB2FB751CE0BB790F2B04D92E4B1B78DBB2FB7514E02C4B1B78DBB2FB750FE0BB7945
:400FC0000F2B04D9294B1B78DBB2FB7507E0284B1B78DBB2FB7502E00023FB7500BFBA8897F917305B0113443B617B883A6902FB03F3FB60FB68DB0BBB82BB790D2B12D880
:40100000BA8ABB79C3F10E0342FA03F3BB8297F82830013BBA790132D1B2164A9B0013440A469A7007E097F82830013B114A9B0013440F229A7097F82830013B0D49BA8AFD
:4010400021F8232002E0002000F01EFB00BF1C37BD4690BD180100491C010049190100491D0100491A0100491E0100491B0100491F0100498081FF1F80B584B000AF0346FB
:40108000FB7100F07CFC0346FB73174A164B1B78DBB243F00303DBB21370144A134B1B78DBB243F00303DBB21370114AFB791370032000F0F5FA0C4A0B4B1B78DBB223F022
:4010C0000303DBB21370094A084B1B78DBB223F00303DBB21370FB7B184600F054FC00BF1037BD4680BD00BFF8460040F94600409258004080B400AF00BFBD4680BC704713
:4011000080B400AF00BFBD4680BC704780B400AF00BFBD4680BC704780B400AF00BFBD4680BC704780B500AF064B1B78002B04D100F00AF8034B01221A7000F025F800BF66
:4011400080BD00BF9081FF1F80B400AF094B72221A70094B20221A70084B06221A70084B47221A70074B00221A7000BFBD4680BC704700BF8A6500408B65004029650040E5
:40118000396500408865004080B582B000AF00F0F6FB0346FB71114A104B1B78DBB243F02003DBB213700E4A0D4B1B78DBB243F01003DBB213700B4A0A4B1B78DBB243F019
:4011C0001003DBB2137000F045FAFB79184600F0DAFB00BF0837BD4680BD00BF9A6500409B6500409865004080B483B000AF0346FB7100BF074B1B78DBB203F00403002B2C
:40120000F8D1054AFB79137000BF0C37BD4680BC704700BF686500404865004080B584B000AF78600023FB810C4B1B78002B10D009E0FB897A6813441B781846FFF7D4FF0A
:40124000FB890133FB81FB897A6813441B78002BEFD100BF1037BD4680BD00BF9081FF1F80B582B000AF0023FB7106E0FB791846FFF7BAF8FB790133FB71FB79012BF5D944
:40128000034BFF221A7000BF0837BD4680BD00BFD180FF1F80B582B000AF0346FB71FFF7DFFFFB791846FFF77FF8034AFB79137000BF0837BD4680BDD180FF1F80B584B091
:4012C00000AF03460A46FB8013467B7100F0CEF80346FB7300F0A4F80346BB81FA88BB899A4200F08880464B1B78DBB203F00203FB72FB7B002B20D1BB89002B02D0FB8862
:40130000002B1AD1BB89002B0BD13E4AFB8813803D4A3D4B1B78DBB223F04003DBB2137069E0394A384B1B78DBB243F04003DBB21370344AFB8813805DE0FB7A002B33D0B0
:40134000324B00221A70324B02221A70314B00221A70314A304B1B78DBB203F07F03DBB21370294B1B78DBB203F00803002B02D0FB88002B18D1294ABB891380234B07224F
:401380001A7000BF214B1B78DBB203F00103002BF8D11B4A1A4B1B78DBB223F00203DBB213701A4B00221A70154B1B78DBB203F00203002B13D0194AFB881380134A7B79FA
:4013C000002B01D0032300E00123137000BF0F4B1B78DBB203F00103002BF8D10BE0094AFB8813800649064B1B78DAB2FB7A1343DBB20B70FFE700BF1037BD4680BD00BF4F
:40140000A24300408440004086400040014000401040004014400040084000400240004080B400AF034B1B889BB21846BD4680BC704700BF8440004080B483B000AF034637
:40144000FB710949084B1B78DBB25AB297F9073023F007035BB213435BB2DBB20B7000BF0C37BD4680BC70478640004080B400AF044B1B78DBB203F00703DBB21846BD4698
:4014800080BC70478640004080B584B000AF03460A46FB8013467B7100F0CEF80346FB7300F0A4F80346BB81FA88BB899A4200F08880464B1B78DBB203F00103FB72FB7B1F
:4014C000002B20D1BB89002B02D0FB88002B1AD1BB89002B0BD13E4AFB8813803D4A3D4B1B78DBB223F04003DBB2137069E0394A384B1B78DBB243F04003DBB21370344A05
:40150000FB8813805DE0FB7A002B33D0324B00221A70324B01221A70314B00221A70314A304B1B78DBB203F07F03DBB21370294B1B78DBB203F00803002B02D0FB88002B62
:4015400018D1294ABB891380234B07221A7000BF214B1B78DBB203F00103002BF8D11B4A1A4B1B78DBB223F00103DBB213701A4B00221A70154B1B78DBB203F00103002B1D
:4015800013D0194AFB881380134A7B79002B01D0032300E00123137000BF0F4B1B78DBB203F00103002BF8D10BE0094AFB8813800649064B1B78DAB2FB7A1343DBB20B70CB
:4015C000FFE700BF1037BD4680BD00BFA14300400041004002410040014000401440004010400040084000400240004080B400AF034B1B889BB21846BD4680BC704700BFF5
:401600000041004080B483B000AF0346FB710949084B1B78DBB25AB297F9073023F007035BB213435BB2DBB20B7000BF0C37BD4680BC70470241004080B400AF044B1B78F1
:40164000DBB203F00703DBB21846BD4680BC70470241004080B400AF094A094B1B78DBB243F00403DBB21370064A064B1B78DBB243F00403DBB2137000BFBD4680BC7047C8
:40168000A2430040B243004080B483B000AF0346FB7101BE00BF0C37BD4680BC704700BF80B582B000AF0346FB80FB88054A127802FB03F3184600F043F900BF0837BD46DB
:4016C00080BD00BFDC80FF1F80B584B000AF03463960FB710F4B1B68FB60FB791F2B02D90020FFF7D1FFFB7903F01F0310339B00FA6813441B68BB60FB7903F01F031033CD
:401700009B00FA6813443A681A60BB6818461037BD4680BD08ED00E080B582B000AF03460A46FB711346BB71BB79072B02D90020FFF7AAFFFB791F2B02D90020FFF7A4FF6A
:40174000FB7903F01F0303F1604303F56443BA795201D2B21A7000BF0837BD4680BD00BF80B500AF00F056F8044800F023F8072000F032F800F042F800BF80BD81170000A1
:4017800098B500AF72B6FFF75BF903461846FFF795F9034619B24FEAE172054B18CB5B1844EB0204024AC2E9003462B600BF98BD6881FF1F80B485B000AF7860054B1B68F4
:4017C000FB60FB6844337A681A6000BF1437BD4680BC704708ED00E080B483B000AF0346FB71054AFB795B01DBB2137000BF0C37BD4680BC704700BF01E400E080B400AF2A
:40180000034B02221A6000BFBD4680BC704700BF00E100E080B400AF034B02221A6000BFBD4680BC704700BF80E100E080B400AF034B02221A6000BFBD4680BC704700BFC0
:4018400080E200E080B500AF00F060F8044800F02DF8072000F03CF800F04CF800BF80BD6518000098B500AF72B60D4BD3E9000142F210724FF0000300F08CF803460C4661
:401880001A46084B1A60064A4FF000034FF00004C2E90034044B01221A7062B600BF98BD6881FF1F7081FF1F7481FF1F80B485B000AF7860054B1B68FB60FB6840337A6820
:4018C0001A6000BF1437BD4680BC704708ED00E080B483B000AF0346FB71054AFB795B01DBB2137000BF0C37BD4680BC704700BF00E400E080B400AF034B01221A6000BF97
:40190000BD4680BC704700BF00E100E080B400AF034B01221A6000BFBD4680BC704700BF80E100E080B400AF034B01221A6000BFBD4680BC704700BF80E200E0000000002A
:40194000142816D902B4012114381049097811F0C001890904B40E4A515C04BC00BF00BF00BF8841FDD500BF00BF02BC704700BF00BF70F10400FCD570470B050709EFF335
:40198000108072B6704780F310887047004800407A19000053B94AB9002908BF00281CBF4FF0FF314FF0FF3000F082B9ADF1080C6DE904CE00F006F8DDF804E0DDE9022365
:4019C00004B070472DE9F04F8C460C460546099E002B4FD18A4217466BD9B2FA82FEBEF1000F0BD0CEF1200520FA05F501FA0EF345EA030C02FA0EF700FA0EF5390CBCFB68
:401A0000F1F0BAB201FB10C300FB02F84FEA154C4CEA0344A04509D9E41900F1FF3380F02881A04540F2258102383C44C8EB0404B4FBF1F301FB134C03FB02F2ACB244EAE0
:401A40000C418A4209D9C91903F1FF3480F00F818A4240F20C81023B39448A1A43EA00400021002E63D022FA0EF2002386E80C00BDE8F08F8B4207D9002E56D0002186E81D
:401A800011000846BDE8F08FB3FA83F1002940F09380A34202D3824200F2FE80851A64EB03039C460120002E41D086E82010BDE8F08F12B90127B7FBF2F7B7FA87FEBEF1BD
:401AC000000F36D1E41B4FEA17481FFA87F90121B4FBF8F308FB134409FB03F24FEA154C4CEA0444A24207D9E41903F1FF3002D2A24200F2D3800346A41AB4FBF8F008FBF7
:401B0000104809FB00F9ACB244EA0842914507D9D21900F1FF3402D2914500F2BA802046C9EB020240EA03409BE731463046BDE8F08F07FA0EF7CEF1200C24FA0CF34FEA7A
:401B40001748B3FBF8FA1FFA87F908FB1A3520FA0CFC04FA0EF40AFB09FB4CEA040C4FEA1C4242EA05439B4500FA0EF50AD9DB190AF1FF3280F08B809B4540F28880AAF1EF
:401B8000020A3B44CBEB0303B3FBF8F008FB103300FB09F41FFA8CFC4CEA03439C4207D9DB1900F1FF326ED29C426CD902383B441C1B40EA0A418BE7C1F1200E8B4022FA18
:401BC0000EFC4CEA030C24FA0EF74FEA1C49B7FBF9FA1FFA8CF309FB1A7720FA0EF88C400AFB03F548EA04044FEA144848EA0747BD4202FA01F200FA01FB09D917EB0C07F0
:401C00000AF1FF3041D2BD423FD9AAF1020A67447F1BB7FBF9F509FB157705FB03F3A4B244EA0747BB4208D917EB0C0705F1FF3027D2BB4225D9023D674445EA0A40A0FB62
:401C40000289FF1A4F4545464C4614D329D066B3BBEB050367EB040707FA0EFECB40CF404EEA030386E888000021BDE8F08F2346F3E61846DAE6B8EB020569EB0C040138C4
:401C8000E5E70546D9E7104692E78246C0E7924678E702383A4443E7084604E7023B3C442AE7C345E7D33C46D1E73146BDE8F08F704700BF014B1868704700BF4481FF1FBD
:401CC0000E4B70B51E460E4C0025E41AA410A54204D056F8253098470135F8E700F0B8FC084B094C1E46E41AA4100025A54204D056F8253098470135F8E770BD5C260000F7
:401D00005C2600005C2600006426000010B5431E0A44914204D011F8014B03F8014FF8E710BD03460244934202D003F8011BFAE7704700000EB400B54FF402719CB0ADF8AB
:401D400014106FF00041049107914FF6FF711DAB02900690084853F8042BADF81610006802A9019300F064F8029B00221A701CB05DF804EB03B070474481FF1F2DE9F04752
:401D80008E6882469E420C46914698463ED88A8912F4906F3AD02568096902236F1A656905EB450595FBF3F57B1C43449D4238BF1D4653050FD5294600F040FB064698B157
:401DC0003A462169FFF7A2FFA38923F4906343F08003A38113E02A4600F08EFB064670B92169504600F0DEFA0C23CAF80030A3894FF0FF3043F04003A381BDE8F087266101
:401E00003E44266046466561ED1BA560464528BF464649463246206800F0A8FAA36800209B1BA36023681E442660BDE8F08700002DE9F04F9DB003938B8980461C060D4622
:401E400016460DD50B695BB9402100F0F7FA2860286118B90C23C8F80030CDE040236B610023099320238DF82930DFF89CB130238DF82A3037463C4614F8013B1BB9B7EB8A
:401E8000060910D003E0252BF9D02746F3E74B46324629464046FFF771FF013000F0A780099B4B4409933B78002B00F0A08000234FF0FF3204930793059206938DF853308B
:401EC0001A930126052221784E4800F041FA671C049B38B14B4A3C46801A06FA00F018430490EFE7D90644BF20228DF853201A0744BF2B228DF8532022782A2A03D0079A35
:401F000000210A200BE0039A111D12680391002A10DA524243F00200079204900BE027463B780134303B092B03D800FB02320121F5E701B107923B782E2B1ED17B782A2B13
:401F40000AD1039B02371A1D1B680392002BB8BF4FF0FF33059310E0002319460593781C0A2407463A780130303A092A03D804FB01210123F5E703B1059103223978224896
:401F800000F0E6F940B14023CBEB000003FA00F0049B013718430490397806221B487E1C8DF8281000F0D4F988B1194B33B9039B073323F007030833039314E003AB0093C1
:401FC0002A46144B04A94046AFF3008007E003AB00932A460F4B04A9404600F093F8B0F1FF3F824603D0099B5344099342E7AB895B0601D4099801E04FF0FF301DB0BDE8D7
:40200000F08F00BF1C2600002226000026260000000000007D1D00002DE9F04791461F460A698B6806469342B8BF1346C9F8003091F843200C46DDF8208012B10133C9F8B6
:4020400000302368990642BFD9F800300233C9F80030256815F0060510D104F1190A07E00123524639463046C04701301AD00135E368D9F800209B1A9D42F1DB94F84330BD
:402080002268003318BF012392060FD5E118302081F843005A1C94F845102244023382F8431003E04FF0FF30BDE8F08704F1430239463046C0470130F4D02268D9F80050E5
:4020C000E36802F00602042A08BF5D1B2269A3680CBF25EAE57500259342C4BF9B1AED184FF000091A344D4509D00123224639463046C0470130D5D009F10109F3E70020D0
:40210000BDE8F0872DE9F04317460A7E85B06E2A984606460C460C9B01F1430E00F0AE8011D8632A22D009D8002A00F0BB80582A40F0CA8081F84520834955E0642A1ED00F
:40214000692A1CD0C0E0732A00F0B08009D86F2A2ED0702A40F0B8800A6842F020020A603EE0752A24D0782A3AD0ADE01A6801F14205111D1960136884F84230A8E0216813
:402180001A6811F0800F02D0111D196008E011F0400F02F10401196002D0B2F9003000E01368002B3CDA2D225B4284F8432037E021681A6811F0800F02D0111D196007E0C5
:4021C00011F0400F02F10401196001D0138800E01368227E5C496F2A14BF0A2208221BE078225A4984F845202268186812F0800F00F104051D6003D1550601D5038800E0B5
:402200000368D00744BF42F0200222601BB9226822F0200222601022002084F8430001E049490A226568002DA56008DB206820F0040020602BB9002D7DD175460CE0002B90
:4022400079D07546B3FBF2F002FB1033CB5C05F8013D03460028F5D1082A0BD12368DA0708D5236962689A42DEBF302305F8013C05F1FF35C5EB0E0323612EE008681A68CF
:4022800010F0800F496903D0101D1860136808E010F0400F02F104001860136801D0198000E0196000232361754616E01A68111D1960156800216268284600F049F808B1C5
:4022C000401B6060636804E004F1420584F8422001232361002384F84330CDF800803B4603AA21463046FFF797FE013002D14FF0FF3026E023692A4639463046C0470130C4
:40230000F5D023689B0710D5002504F1190907E001234A4639463046C0470130E7D00135E368039A9B1A9D42F2DBE068039B9842B8BF184605E00B7804F1420584F8423065
:402340008AE705B0BDE8F0832D2600003E26000010B5C9B202449042034605D01C7801308C42F8D1184610BD002010BD884210B501EB020301D8421E0BE09842FBD281189A
:40238000D21AD34204D013F8014D01F8014DF8E710BD994204D011F8014B02F8014FF8E710BD000038B50546002944D051F8043C0C1F002BB8BFE41800F0D4F81E4A13689C
:4023C000114613B96360146030E0A3420DD92268A018834201BF18685B681218226063600C6023E0A24203D813465A68002AF9D118681918A1420BD1216801445818824280
:40240000196013D110685268014419605A600DE002D90C232B6009E021686018824201BF106852680918216062605C602846BDE8384000F098B838BD9881FF1F70B5CD1C4E
:4024400025F0030508350C2D38BF0C25002D064601DBA94202D90C23336046E000F082F8234B1C681A462146A1B10B685B1B0ED40B2B03D90B60CC18CD501EE08C420BBF4A
:4024800063684B681360636018BF0C4615E00C464968E9E7174C23681BB9304600F052F820602946304600F04DF8431C18D0C41C24F00304A0420DD12560304600F053F833
:4024C00004F10B00231D20F00700C31A0ED05A42E25070BD211A304600F034F80130EBD10C233360304600F03EF8002070BD00BF9881FF1F9481FF1FF8B5074615460E4698
:4025000021B91146BDE8F840FFF798BF1AB9FFF749FF2846F8BD00F027F885420ED929463846FFF78BFF044650B131462A46FFF7EDFB31463846FFF735FF01E03046F8BDA7
:402540002046F8BD38B5064C0023054608462360FEF73AF8431C02D1236803B12B6038BDA081FF1F7047704751F8040C0028BEBF091851F8043CC01804387047000000008A
:4025800044F4FF7F01000000434F4D20506F7274204F70656E0D0A007B0A22566F6C74616765205B6D565D22203A20256C752C0D0A202254656D7065726174757265205BB3
:4025C000435D22203A202568752E256875200D0A7D0D0A00035B00402443004040000000205100405000F05100401000000001400010001401400006801A01408001004043
:402600000140000A004C01400002005001402000001A0140D002004880004300232D302B2000686C4C006566674546470030313233343536373839414243444546003031E5
:4026400032333435363738396162636465660000F8B500BFF8BC08BC9E4670474D000000B1060000F8B500BFF8BC08BC9E4670472900000088260000C880FF1F800000009A
:40268000600000000000000000000000A881FF1F01FF000000366E01C05D0000180000000000E02E000000000000000000000000000000000000000000000000000000008B
:4026C000000000001A26000000000000000000000000000000000000000000000000000000000000000000000000000000000000000000000000000000000000000000009A
:4027000000000000E480FF1F000000000000000000000000000000000000000000000000000000000000000000000000000000000000000000000000000000000000000017
:402740000000000000000000000000000000000000000000000000000000000000000000000000000000000000000000000000000000000000000000000000000000000059
:402780000000000000000000000000000000000000000000000000000000000000000000000000000000000000000000000000000000000000000000000000000000000019
:4027C00000000000000000000000000000000000000000000000000000000000000000000000000000000000000000000000000000000000000000000000000000000000D9
:402800000000000000000000000000000000000000000000000000000000000000000000000000000000000000000000000000000000000000000000000000000000000098
:020000040003F7
:0200000480007A
:4000000002520040036500400408014001090140011501406D1801403D190140101A01404E1B01400340014002410140024201400443014002440140014501400346014076
:40004000014701400448014001490140044C0140094D0140025001400151014061806440880F8A728B3838023E0158045F011C40E820000901030210034404100553070C38
:40008000080C090A0A110B540C200E03141C160218141F082120234525532704281029802A0C31303220330F3580361F374039023B083E043F5040344106450B47CE483106
:4000C00049FF4AFF4BFF4EF04F44500C5401580459045A045B045C225D225F0166C06A406B0281018306844089248A408B118D128E408F29928C94AC9577960398319977B0
:400100009A0E9D409E08A213A431A686A840B030B107B20FB330B48AB540B640B708B882BA28BE01C004C704C9FFCA07CBFFCC40CD20CEF0CF05D008D804D904DA04DC220D
:40014000DD02DF01E040E1A8E240E32000840308040805500740088009010A140E100F081084110813021720184019101A1C1B801C201D40200A2101235025052640276814
:400180002C882E0432403314374039023B903D083E103F0240404504470248804E044F085004540857015D105E805F0984108B12B440C0F7C26FC44ECAE0CC1ECEEDD0C112
:4001C000D220D6F0E0089A01A301A601AB01B301B601BA08BE40BF04D418D804D904DB04DC02DD20DF01000401020201030A08050A120B400F0410821318150818051911E1
:400200001B081D401E102080211022012306250828A529022F84308031103201330838283A013B804001411042504508462048044B08510459015F02654066206A806B144C
:40024000709473188004824088868B40934094049680978098209C049F14A004A382A440A708AD10AF01B021B48CB701C00FC24DC42FCAAFCC0FCE0FD00FD204D681D83085
:40028000E82032803780CC309F80A6809F80A68013809F80A680C4407C20DE019C2044109C20D0019C3021012680A680C860B10187109C10B420E802108073108880931000
:4002C000B010C408DC01E601E80410041C04000B0080230033180C001F08200002448000033C40C23F1C00E100E700181C102300080000E3040000040CFF000001C0800072
:40030000101F2C000F38C0C0000028020000410046030200010E000C11FFFFFF62A0F0410C000000000002130404040422220001000000000000400200103010001010124F
:40034000000000000000000000000000000000000000000000000100800040808000800000000000000B0B00000000002500180100000000000000000000000000000000E8
:40038000000000000000000000000000000000000000000000000000000000000000000000000000000000000000000000000000000000000000000000000000000000003D
:4003C00000000000000000000000000000000000000000000000000000000000000000000000000000000000000000000000000000000000000000000000000000000000FD
:4004000000000000000000000000000000000000000000000000000000000000000000000000000000000000000000000000000000000000000000000000000000000000BC
:40044000000000000000000000000000000000000000000000000000000000000000000000000000000000000000000000000000000000000000000000000000000000007C
:0200000490006A
:0400000000004005B7
:0200000490105A
:04000000BC90ACAF55
:0200000490303A
:020000004A10A4
:0200000490402A
:4000000000000000000000000000000000000000000000000000000000000000000000000000000000000000000000000000000000000000000000000000000000000000C0
:400040000000000000000000000000000000000000000000000000000000000000000000000000000000000000000000000000000000000000000000000000000000000080
:400080000000000000000000000000000000000000000000000000000000000000000000000000000000000000000000000000000000000000000000000000000000000040
:4000C0000000000000000000000000000000000000000000000000000000000000000000000000000000000000000000000000000000000000000000000000000000000000
:0200000490501A
:0C00000000012E16106900012E255A790F
:00000001FF